S0120000426974576973654578322E737265636C
S11300000C9434000C943E000C943E000C943E007E
S11300100C943E000C943E000C943E000C943E0064
S11300200C943E000C943E000C943E000C943E0054
S11300300C943E000C943E000C943E000C943E0044
S11300400C943E000C943E000C943E000C943E0034
S11300500C943E000C943E000C943E000C943E0024
S11300600C943E000C943E0011241FBECFEFD8E048
S1130070DEBFCDBF0E9440000C9474000C940000BD
S113008084B1806384B985B1806185B92FEF87EA33
S113009091E6215080409040E1F700C0000085B116
S11300A08F7E85B92FEF87EA91E6215080409040FA
S11300B0E1F700C0000085B1806285B92FEF87EABF
S11300C091E6215080409040E1F700C0000085B1E6
S11300D08F7D85B92FEF87EA91E6215080409040CB
S10F00E0E1F700C00000CFCFF894FFCF80
S9030000FC
